:020000040040BA
:1000000080340020CD024000CB024000CB024000F3
:10001000CB024000CB024000CB02400000000000B9
:10002000000000000000000000000000CB024000C3
:10003000CB02400000000000CB024000CB02400099
:10004000CB024000CB024000CB024000CB0240007C
:10005000CB024000CB024000CB0240000000000079
:10006000CB024000CB02400000000000CB02400069
:10007000CB02400000000000CB0240000000000066
:10008000000000000000000000000000CB02400063
:10009000CB024000CB024000CB024000CB0240002C
:1000A000CB024000CB024000000000000000000036
:1000B00000000000CB02400000000000CB02400026
:1000C000CB024000CB024000CB02400010B5054CF3
:1000D000237833B9044B13B10448AFF300800123F4
:1000E000237010BD3C04002000000000D407400035
:1000F0000C4B43B10C480D4910B5AFF300800C48D0
:10010000036823B910BD0A48036833B97047094B27
:10011000002BF7D0BDE810401847064B002BF5D058
:10012000184700BF00000000D40740004004002032
:10013000D40740000000000008B50E480E4B984759
:100140003E2101200D4B98470D4B98470028FBD0CE
:100150000C4B98470C4A0D4B9A620D4B9847002860
:10016000FBD010200B4B98470B4B98470148024B94
:10017000984708BD000E270795044000F101400094
:100180004502400055024000013F0B2000040E4094
:10019000650240009D01400069034000134A136B53
:1001A00023F07003184310634FF400630F4A926EFC
:1001B00012F0080F02D1A3B1013BF7E70B4A136B12
:1001C00023F0030343F0020313634FF40063074A71
:1001D000926E12F0080F02D12BB1013BF7E700201D
:1001E0007047012070470120704700BF00040E4097
:1001F000D0B9114A136A23F45C1323F003030902F4
:1002000089B20B4343F45C1343F0010313620A4BBE
:100210009B6E13F0010FFAD0074A136A43F09B73E9
:1002200043F480331362704703490B6A034A1A4050
:10023000034B13430B62704700040E40FCFFC8FEE3
:1002400002003701024B986E00F48030704700BF07
:1002500000040E404FF00052014B9A62704700BFFD
:1002600000040E40024B986E00F00200704700BF81
:1002700000040E4022281ED81F280CD8114B9A6962
:1002800001238340934318D0012303FA00F00D4B60
:1002900018610020704720380A4BD3F80821012349
:1002A000834093430BD0012303FA00F0054BC3F8BE
:1002B0000001002070470120704700207047002097
:1002C000704700BF00040E407047FEE708B5194BA9
:1002D000194A9A4214D8174B174A9A420DD2174A14
:1002E000D11A154B0B44043B043A11E01168196014
:1002F0000433043211498B42F8D300BF104B0DE098
:100300000C4B0D4AF6E7186810600439043A043BB8
:100310000029F8D1F1E700221A600433094A934218
:10032000F9D3094B094A9A60094B9847094B9847FA
:10033000FEE700BF00000020D40740003C0400207E
:100340003C0400207C04002000ED00E000004000A0
:100350003D06400011054000014A024B1A607047FB
:1003600000010004000A0E40434B1B6B03F0030323
:10037000032B49D8DFE803F002112D2D3F4B5B69B9
:1003800013F0800F04D04FF400423D4B1A603BE065
:100390004FF4FA423A4B1A6036E0374B1B6A13F0BF
:1003A000807F03D0374A364B1A602DE0364A344BF3
:1003B0001A60314B1B6A03F07003102B05D0202B01
:1003C00022D1304A2E4B1A601EE0304A2C4B1A6064
:1003D0001AE0294B1B6A13F0807F24D0294A284B4E
:1003E0001A60254B1B6B03F00303022B2ED022480F
:1003F000C26AC2F30A4222490B6802FB0333C26A93
:10040000D2B2B3FBF2F30B601B4B1B6B03F0700318
:10041000702B29D0184B1A6BC2F3021218490B68C3
:10042000D3400B607047184A154B1A60124B1B6A79
:1004300003F07003102B05D0202BD2D1114A104BA2
:100440001A60CEE7114A0E4B1A60CAE70A48826A60
:10045000C2F30A420A490B6802FB0333826AD2B232
:10046000B3FBF2F30B60CFE7054A13680849A1FB21
:1004700003135B081360704700040E4010140E4015
:100480000C000020001BB70000093D0000127A009C
:10049000ABAAAAAA144B98420FD9144B984211D96F
:1004A000134B984212D9134B984213D9124B9842CE
:1004B00014D9124A124B1A6070474FF08062104BE9
:1004C0001A6070470F4A0E4B1A6070470E4A0C4B69
:1004D0001A6070470D4A0A4B1A6070474FF00422A9
:1004E000074B1A60704700BFFF2C3101FF596202B1
:1004F000FF869303FFB3C404FFE0F5050005000485
:10050000000A0E4000010004000200040003000481
:1005100010B5424B9847424B9847424B98470B20A7
:10052000414CA0470C20A047404B20221A61C3F841
:10053000A0206DE000BF00BF00BF00BF00BF00BF34
:1005400000BF00BF00BF00BF00BF00BF00BF00BFB3
:1005500000BF00BF00BF00BF00BF00BF00BF00BFA3
:1005600000BF00BF00BF00BF00BF00BF00BF00BF93
:1005700000BF00BF00BF00BF00BF00BF00BF00BF83
:1005800000BF00BF00BF00BF00BF00BF00BF00BF73
:1005900000BF00BF00BF00BF00BF00BF00BF00BF63
:1005A00000BF00BF00BF00BF00BF00BF00BF00BF53
:1005B00000BF00BF00BF00BF00BF00BF00BF00BF43
:1005C00000BF00BF00BF00BF00BF00BF00BF00BF33
:1005D00000BF00BF00BF00BF00BF00BF00BF00BF23
:1005E00000BF00BF00BF00BF00BF00BF00BF00BF13
:1005F00000BF00BF00BF00BF00BF00BF01330C4AF7
:10060000934297DD2022094B1A630A480A4B984708
:100610002022064B5A630023F1E700BF5903400034
:10062000C90240003901400075024000000E0E4032
:10063000BF270900136541000100002070B50F4E6F
:100640000F4D761BB61018BF002405D0013455F8A5
:10065000043B9847A642F9D10A4E0B4D761B00F099
:10066000A7F8B61018BF002406D0013455F8043B93
:100670009847A642F9D170BD70BD00BFBC074000CD
:10068000BC074000C4074000BC074000024B13B148
:10069000024800F005B8704700000000AD064000B9
:1006A000002301461A46184600F01EB838B50A4C19
:1006B0000A4D641BA4100AD004F18043013B05EBF2
:1006C0008305013C55F804399847002CF9D1BDE861
:1006D000384000F077B800BFD4074000D007400092
:1006E000704700BF704700BF2DE9F8432C4D064608
:1006F000286898460F469146FFF7F2FF294B1C6881
:10070000D4F84831002B3ED05A681F2A1CDC02F175
:10071000010E76B103EB82010124C1F88890D3F871
:10072000880194402043022EC3F88801C1F8088153
:1007300023D00232C3F804E0286843F82270FFF7A0
:10074000D1FF0020BDE8F883174B0BB34FF4C870FE
:10075000AFF300800346D8B1D4F8482102600021ED
:1007600041600A46C4F848014FF0010EC0F88811F4
:10077000C0F88C11002EDCD0CCE7D3F88C110C43E0
:10078000C3F88C41D5E704F5A673C4F84831BBE73C
:100790002868FFF7A7FF4FF0FF30BDE8F88300BFE0
:1007A00038040020AC0740000000000010000020CA
:1007B000F8B500BFF8BC08BC9E4670478D064000E7
:1007C000F1004000F8B500BFF8BC08BC9E46704779
:0407D000CD00400018
:1007D400BFF35F8F0138FBD17047000000093D0073
:1007E40000000000FC02002064030020CC03002071
:1007F40000000000000000000000000000000000F5
:1008040000000000000000000000000000000000E4
:1008140000000000000000000000000000000000D4
:1008240000000000000000000000000000000000C4
:1008340000000000000000000000000000000000B4
:1008440000000000000000000000000000000000A4
:100854000000000000000000000000000000000094
:100864000000000000000000000000000000000084
:100874000000000000000000000000000000000074
:100884000000000000000000010000000000000063
:100894000E33CDAB34126DE6ECDE05000B00000028
:1008A4000000000000000000000000000000000044
:1008B4000000000000000000000000000000000034
:1008C4000000000000000000000000000000000024
:1008D4000000000000000000000000000000000014
:0C0C040000000000000000005804002068
:04000005004002CDE8
:00000001FF
